:100000000C9446000C9450000C9450000C9450003A
:100010000C9450000C9450000C9450000C94500020
:100020000C9450000C9450000C9450000C94500010
:100030000C9450000C9450000C9450000C94500000
:100040000C9450000C9450000C9450000C945000F0
:100050000C9450000C9450000C9450000C945000E0
:100060000C9450000C9450000C9450000C945000D0
:100070000C9450000C9450000C9450000C945000C0
:100080000C9450000C9450000C94500011241FBE8E
:10009000CFEFD0E4DEBFCDBF0E9452000C947500BC
:1000A0000C940000CF93DF930F92CDB7DEB781E2BF
:1000B00090E0FC01108282E290E02FEFFC012083AF
:1000C00084E290E02FEFFC01208385E290E0FC01C8
:1000D0001082198280E290E0FC018081898385E2B0
:0E00E00090E02981FC012083F5CFF894FFCF3A
:00000001FF
